:1000000045C0000060C000005EC000005CC0000091
:100010005AC0000058C0000056C0000054C0000084
:1000200052C0000050C000004EC000004CC0000094
:100030004AC0000048C0000046C0000044C00000A4
:1000400042C00000D1C000003EC000003CC0000023
:100050003AC0000038C0000036C0000034C00000C4
:1000600032C0000030C000002EC000002CC00000D4
:100070002AC0000028C0000026C0000024C00000E4
:1000800022C0000020C000001EC0000011241FBEBE
:10009000CFEFD0E1DEBFCDBF11E0A0E0B1E0E2E7FD
:1000A000F2E000E00BBF02C007900D92AC30B10748
:1000B000D9F721E0ACE0B1E001C01D92A231B20756
:1000C000E1F706D0D4C09CCFBC9A6E9A6F9A08957F
:1000D000FBDF789481B3806F81BBE1E6F0E0808143
:1000E0008F67808384B38F6D84BB80E885BBFFCF2F
:1000F000E2E6F0E080818E7F808380818D7F808347
:1001000080818B7F80838081877F8083AB98AA9852
:10011000A998A8980895E2E6F0E080818E7F808318
:1001200080818D7F80838081846080838081877FD0
:100130008083AB98AA98A998A898089560E071E088
:100140008FE091E08BD0892B49F482B3805882BB39
:10015000E2E6F0E0908180E18927808363E071E04E
:100160008FE091E07BD0892B49F492B380E298270D
:1001700092BBE2E6F0E090818927808366E071E03F
:100180008FE091E06BD0892B51F492B380E1892705
:1001900082BBE2E6F0E0908180E48927808369E019
:1001A00071E08FE091E05AD0892BE9F480910D0144
:1001B00090910E01019690930E0180930D01817034
:1001C0009078992324F401978E6F9F6F0196019781
:1001D00019F4969AAC9A9FDF80910D0180FD03C0BF
:1001E0009698AC9885CF08951F920F920FB60F92F4
:1001F00011240BB60F922F933F934F935F936F93FE
:100200007F938F939F93AF93BF93EF93FF938FB1A0
:10021000E0910C0191E09E0F90930C01F0E0E15F02
:10022000FE4F808380910C01823029F410921101DD
:1002300010920C0183DFFF91EF91BF91AF919F91DD
:100240008F917F916F915F914F913F912F910F907F
:100250000BBE0F900FBE0F901F901895FB01DC0195
:100260008D91019080190110D9F3990B0895F8949C
:02027000FFCFBE
:0C0272004C31004C32004C33004631008F
:00000001FF
