:1000000045C0000060C000005EC000005CC0000091
:100010005AC0000058C0000056C0000054C0000084
:1000200052C0000050C000004EC000004CC0000094
:100030004AC0000048C0000046C0000044C00000A4
:1000400042C0000070C100003EC000003CC0000083
:100050003AC0000038C0000036C0000034C00000C4
:1000600032C0000030C000002EC000002CC00000D4
:100070002AC0000028C0000026C0000024C00000E4
:1000800022C0000020C000001EC0000011241FBEBE
:10009000CFEFD0E1DEBFCDBF11E0A0E0B1E0E0EBFB
:1000A000F3E000E00BBF02C007900D92A231B10750
:1000B000D9F721E0A2E1B1E001C01D92AA31B20757
:1000C000E1F706D073C19CCFBC9A6E9A6F9A0895DF
:1000D000FBDF789481B3806F81BBE1E6F0E0808143
:1000E0008F67808384B38F6D84BB80E885BBFFCF2F
:1000F00060E071E087E191E050D1892B49F482B34F
:10010000805882BBE2E6F0E0908180E1892780831D
:1001100063E071E087E191E040D1892B49F492B32B
:1001200080E2982792BBE2E6F0E090818927808305
:1001300066E071E087E191E030D1892B51F492B310
:1001400080E1892782BBE2E6F0E0908180E48927A4
:10015000808369E071E087E191E01FD1892B31F55F
:100160008091130190911401019690931401809352
:10017000130181709078992324F401978E6F9F6FFB
:100180000196019741F4969AAC9A81E090E09093A1
:100190001601809315018091130180FD07C0969888
:1001A000AC9810921601109215012CC06FE071E00E
:1001B00087E191E0F2D0892B79F48091150190913B
:1001C00016019C01215031092430310528F4019693
:1001D00090931601809315016CE071E087E191E046
:1001E000DCD0892B79F480911501909116019C0146
:1001F000225031092430310528F4019790931601DB
:10020000809315018091150190911601892B91F42D
:10021000E2E6F0E080818E7F808380818D7F808325
:1002200080818B7F80838081877F8083AB98AA9831
:10023000A998A8988091150190911601019791F4C1
:10024000E2E6F0E080818E7F808380818D7F8083F5
:100250008081846080838081877F8083AB98AA9827
:10026000A998A8988091150190911601029791F490
:10027000E2E6F0E080818E7F8083808182608083EF
:1002800080818B7F80838081877F8083AB9AAA98CF
:10029000A998A8988091150190911601039791F45F
:1002A000E2E6F0E080818160808380818D7F8083C1
:1002B00080818B7F80838081877F8083AB9AAA9A9D
:1002C000A998A8988091150190911601049791F42E
:1002D000E2E6F0E080818E7F80838081826080838F
:1002E0008081846080838081877F8083AB9AAA9A93
:1002F000A99AA8988091150190911601059791F4FB
:10030000E2E6F0E080818E7F808380818D7F808334
:1003100080818B7F8083808188608083AB9AAA9A5A
:10032000A99AA89A08951F920F920FB60F921124BE
:100330000BB60F922F933F934F935F936F937F93DF
:100340008F939F93AF93BF93EF93FF938FB1E09100
:10035000120191E09E0F90931201F0E0E95EFE4FD2
:10036000808380911201823029F410921901109239
:100370001201BEDEFF91EF91BF91AF919F918F91DE
:100380007F916F915F914F913F912F910F900BBE95
:100390000F900FBE0F901F901895FB01DC018D91FF
:1003A000019080190110D9F3990B0895F894FFCFAB
:1003B0004C31004C32004C33004631004431005582
:0203C00031000A
:00000001FF
