S00C0000737069312E737265639B
S11300000C9466000C9483000C9483000C9483007D
S11300100C9483000C9483000C9483000C94830050
S11300200C9483000C9483000C9483000C94830040
S11300300C9483000C9483000C9483000C94830030
S11300400C9483000C9483000C9483000C94FF00A4
S11300500C9483000C9483000C9483000C94830010
S11300600C9483000C9483000C9483000C94830000
S11300700C9483000C9483000C9483000C948300F0
S11300800C9483000C9483000C9483000C948300E0
S11300900C9483000C9483000C9483000C948300D0
S11300A00C9483000C9483000C9483000C948300C0
S11300B00C9483000C9483000C9483000C948300B0
S11300C00C9483000C9483000C94830011241FBEB1
S11300D0CFEFD8E0DEBFCDBF11E0A0E0B1E0EEEAA3
S11300E0F2E002C005900D92A430B107D9F721E0E7
S11300F0A4E0B1E001C01D92AB30B207E1F70E9469
S1130100AE000C9455010C9400000E94C1000895A7
S113011084B1806B84B980E58CBD2C9A08952C98A9
S11301208EBD0DB407FEFDCF2C9A0895CF93DF93B7
S1130130EC018881882379F021960E948F002FEFAB
S113014080E792E0215080409040E1F700C0000039
S113015089918111F2CFDF91CF9108950E9485009A
S113016078940E94880080E091E00E949600FBCF82
S113017026982E98259A2D98279A2F980E94F20057
S1130180089583E0809365008FEF809364009FE07F
S11301909093630091B111B892B182B994B114B83B
S11301A095B185B997B117B898B188B99AB11AB809
S11301B09BB18BB98DB180788DB98EB18F678EB9B3
S11301C040E060E881E690E00E94EB0013BE15BEBB
S11301D00E94B80008952FB7F894FC01608340830F
S11301E02FBF0895E4E6F0E080818B7F808380ED6B
S11301F08CBDE4E0F1E010821682158208951F920E
S11302000F920FB60F9211242F933F934F935F9346
S11302106F937F938F939F93AF93BF93CF93DF930A
S1130220EF93FF939EB580910801823011F1C4E0F1
S1130230D1E0A981BA81FD019193FA83E9838130E8
S113024019F011969C9101C090E0E4E0F1E0838103
S113025081508383882311F09EBD14C0E4E0F1E053
S113026083E080830580F681E02D309759F009956D
S113027009C0E4E0F1E0A181B281CD01019692834D
S11302808183DFCFFF91EF91DF91CF91BF91AF9148
S11302909F918F917F916F915F914F913F912F919A
S11102A00F900FBE0F901F901895F894FFCF8B
S10702AE4C310000CB
S9030000FC
