:1000000045C0000060C000005EC000005CC0000091
:100010005AC0000058C0000056C0000054C0000084
:1000200052C0000050C000004EC000004CC0000094
:100030004AC0000048C0000046C0000044C00000A4
:1000400042C0000071C100003EC000003CC0000082
:100050003AC0000038C0000036C0000034C00000C4
:1000600032C0000030C000002EC000002CC00000D4
:100070002AC0000028C0000026C0000024C00000E4
:1000800022C0000020C000001EC0000011241FBEBE
:10009000CFEFD0E1DEBFCDBF11E0A0E0B1E0E2EBF9
:1000A000F3E000E00BBF02C007900D92A031B10752
:1000B000D9F721E0A0E1B1E001C01D92A831B2075B
:1000C000E1F706D074C19CCFBC9A6E9A6F9A0895DE
:1000D000FBDF789481B3806F81BBE1E6F0E0808143
:1000E0008F67808384B38F6D84BB80E885BBFFCF2F
:1000F000809115018C3469F480911601813349F4A3
:1001000092B380E1892782BBE2E6F0E080818064DF
:10011000808360E071E085E191E040D1892B49F472
:1001200092B380E2982792BBE2E6F0E090818927C3
:10013000808363E071E085E191E030D1892B51F457
:1001400092B380E1892782BBE2E6F0E0908180E40F
:100150008927808366E071E085E191E01FD1892BDA
:1001600031F5809111019091120101969093120145
:100170008093110181709078992324F401978E6FF8
:100180009F6F0196019741F4969AAC9A81E090E0B6
:1001900090931401809313018091110180FD07C099
:1001A0009698AC9810921401109213012CC06CE038
:1001B00071E085E191E0F2D0892B79F4809113010F
:1001C000909114019C01215031092430310528F40B
:1001D0000196909314018093130169E071E085E129
:1001E00091E0DCD0892B79F4809113019091140176
:1001F0009C01225031092430310528F40197909355
:100200001401809313018091130190911401892BA3
:1002100091F4E2E6F0E080818E7F808380818D7FA3
:10022000808380818B7F80838081877F8083AB9870
:10023000AA98A998A8988091130190911401019708
:1002400091F4E2E6F0E080818E7F808380818D7F73
:1002500080838081846080838081877F8083AB9866
:10026000AA98A998A89880911301909114010297D7
:1002700091F4E2E6F0E080818E7F8083808182606D
:10028000808380818B7F80838081877F8083AB9A0E
:10029000AA98A998A89880911301909114010397A6
:1002A00091F4E2E6F0E080818160808380818D7F3F
:1002B000808380818B7F80838081877F8083AB9ADE
:1002C000AA9AA998A8988091130190911401049773
:1002D00091F4E2E6F0E080818E7F8083808182600D
:1002E00080838081846080838081877F8083AB9AD4
:1002F000AA9AA99AA8988091130190911401059740
:1003000091F4E2E6F0E080818E7F808380818D7FB2
:10031000808380818B7F8083808188608083AB9A9B
:10032000AA9AA99AA89A08951F920F920FB60F92AF
:1003300011240BB60F922F933F934F935F936F93BC
:100340007F938F939F93AF93BF93EF93FF938FB15F
:10035000E091100191E09E0F90931001F0E0EB5EB0
:10036000FE4F808380911001823029F41092170192
:1003700010921001BDDEFF91EF91BF91AF919F915F
:100380008F917F916F915F914F913F912F910F903E
:100390000BBE0F900FBE0F901F901895FB01DC0154
:1003A0008D91019080190110D9F3990B0895F8945B
:0203B000FFCF7D
:1003B2004C32004C330046310044310055310000CC
:00000001FF
