:1000000045C0000060C000005EC000005CC0000091
:100010005AC0000058C0000056C0000054C0000084
:1000200052C0000050C000004EC000004CC0000094
:100030004AC0000048C0000046C0000044C00000A4
:1000400042C0000092C000003EC000003CC0000062
:100050003AC0000038C0000036C0000034C00000C4
:1000600032C0000030C000002EC000002CC00000D4
:100070002AC0000028C0000026C0000024C00000E4
:1000800022C0000020C000001EC0000011241FBEBE
:10009000CFEFD0E1DEBFCDBF11E0A0E0B1E0E4EFF3
:1000A000F1E000E00BBF02C007900D92AC30B10749
:1000B000D9F721E0ACE0B1E001C01D92A031B20758
:1000C000E1F706D095C09CCFBC9A6E9A6F9A0895BE
:1000D000FBDF789481B3806F81BBE1E6F0E0808143
:1000E00080678083A49AFFCF60E071E08DE091E0AB
:1000F00076D0892B49F482B3805882BBE2E6F0E0E7
:10010000908180E18927808363E071E08DE091E058
:1001100066D0892B49F492B380E2982792BBE2E63D
:10012000F0E090818927808366E071E08DE091E0C6
:1001300056D0892B51F492B380E1892782BBE2E645
:10014000F0E0908180E48927808369E071E08DE0B0
:1001500091E045D0892B41F492B380E4892782BB9A
:1001600095B380E1892785BB08951F920F920FB642
:100170000F9211240BB60F922F933F934F935F93DF
:100180006F937F938F939F93AF93BF93EF93FF935F
:100190008FB1E0910C0191E09E0F90930C01F0E083
:1001A000E35FFE4F808380910C01823029F410922E
:1001B0000F0110920C0198DFFF91EF91BF91AF9169
:1001C0009F918F917F916F915F914F913F912F916F
:1001D0000F900BBE0F900FBE0F901F901895FB0154
:1001E000DC018D91019080190110D9F3990B0895CC
:0401F000F894FFCFB1
:0C01F4004C31004C32004C33004631000E
:00000001FF
