S0130000646F75626C65746F7563682E7372656373
S11300000C9466000C9483000C9483000C9483007D
S11300100C9483000C9483000C9483000C94830050
S11300200C9483000C9483000C9483000C94830040
S11300300C9483000C9483000C9483000C94830030
S11300400C948A000C9483000C9483000C941D037C
S11300500C9483000C9483000C9483000C94830010
S11300600C9483000C9483000C9483000C94830000
S11300700C9483000C9483000C9483000C948300F0
S11300800C9483000C9483000C9483000C948300E0
S11300900C9483000C9483000C9483000C94A602AB
S11300A00C9483000C9483000C9483000C948300C0
S11300B00C9483000C9483000C9483000C948300B0
S11300C00C9483000C9483000C94830011241FBEB1
S11300D0CFEFD8E0DEBFCDBF11E0A0E0B1E0E0E3B8
S11300E0F9E102C005900D92A635B107D9F721E0D8
S11300F0A6E5B1E001C01D92AE39B207E1F70E9456
S11301002B010C94960C0C9400000E94DA020E94BD
S1130110DD0108951F920F920FB60F9211242F93B1
S11301203F934F935F936F937F938F939F93AF937B
S1130130BF93EF93FF930E945902A89AFF91EF9106
S1130140BF91AF919F918F917F916F915F914F91EB
S11301503F912F910F900FBE0F901F90189584B16F
S1130160806B84B980E58CBD2C9A08952C988EBD43
S11301700DB407FEFDCF2C9A0895CF93DF93EC01C5
S11301808881882361F021960E94B60087EA91E66F
S11301900197F1F700C0000089918111F5CFDF913B
S11301A0CF91089580915B0180935A0180E090E0A3
S11301B00E949702807880935B018823C1F080912C
S11301C05A01811114C0809159018F5F80935901A4
S11301D0813029F48AE491E00E94BD0008958230C0
S11301E031F48AE491E00E94BD001092590108950F
S11301F0809158018093570181E090E00E9497021A
S11302008078809358018823C1F08091570181112F
S113021014C0809156018F5F80935601813029F478
S11302208DE491E00E94BD000895823031F48DE4A4
S113023091E00E94BD001092560108950E94170299
S113024080916001813031F4109260010E94D200EB
S11302500E94F80008950E94850078940E94AF00DF
S11302600E941E01FDCF0895CF93C82F0E949103D1
S11302708823E1F38C2F0E949F030E94970381112E
S1130280FCCFCF910895EF92FF920F931F93CF93DA
S1130290DF9300D0CDB7DEB780915C018F7081F41D
S11302A000E011E00F2EF3E1EF2EF1E0FF2EF02D30
S11302B0F80181918F010E943401E016F106C1F723
S11302C085E50E94340180915C010E9434011A8208
S11302D0198289819A81029708F053C089819A8191
S11302E00E947002192F0E943401812F0E94340150
S11302F089819A810E947D02192F0E943401812FE5
S11303000E94340189819A810E9470028C01898142
S11303109A810E947D02081B190B802F0E943401D0
S1130320812F0E94340189819A810E948A02192FA7
S11303300E943401812F0E94340189819A810E9494
S11303409702882324F481E00E94340103C080E0F2
S11303500E94340189819A81FC01EE0FFF1F8E0FE8
S11303609F1FFC01E55EFE4F80810E94340189815C
S11303709A8101969A83898389819A81029708F4E4
S1130380ADCF80915F010E94340180915C0191E0C6
S1130390980F90935C010E9434018AEA0E94340110
S11303A00F900F90DF91CF911F910F91FF90EF90DD
S11303B0089581E080936101089588E087BDE3E6B4
S11303C0F0E08081877F8083129813988BE291E01C
S11303D00E944F0A8AE891E00E94E00A60E070E01F
S11303E08BE291E00E94E30B60E070E08BE291E02D
S11303F00E94020C61E070E08BE291E00E94E30B4A
S113040061E070E08BE291E00E94020C40E851E070
S113041060E083E191E00E941B0445E851E061E063
S113042083E191E00E941B040E94330108958091AE
S11304306201813051F469ED71E08BE291E00E9438
S1130440EA0A811102C01092620180916101813037
S113045039F5109261010E94E80881110CC083E112
S113046091E00E943A04882359F082E080935F016E
S11304700E94430105C081E080935F010E94430113
S1130480E0911301F09114018081882324F481E028
S11304908093620103C081E0809360010E94430164
S11304A0089581E08093620184E190E00E94100449
S11304B0089580915D0190915E01449739F4109202
S11304C05E0110925D010E945102089580915D01C8
S11304D090915E01019690935E0180935D01089571
S11304E09C01220F331F220F331F820F931FFC0125
S11304F0E058FE4F8181928108959C01220F331FA1
S1130500820F931FFC01EE0FFF1FE257FE4F848101
S1130510958108959C01220F331F220F331F820FF0
S1130520931FFC01E058FE4F8381948108959C0140
S1130530220F331F820F931F880F991FE091170119
S1130540F0911801E80FF91F808108951F920F920E
S11305500FB60F9211242F933F934F935F936F9392
S11305607F938F939F93AF93BF93EF93FF930E94D7
S1130570420CFF91EF91BF91AF919F918F917F9129
S11305806F915F914F913F912F910F900FBE0F90FC
S11305901F90189526982E98259A2D98279A2F986B
S11305A00E941003089550985898519A59980E949F
S11305B08003089583E0809365008FEF8093640047
S11305C09FE09093630091B111B892B182B994B154
S11305D014B895B185B997B117B898B188B99AB1DB
S11305E01AB89BB18BB98DB180788DB98EB18F67F4
S11305F08EB940E060E881E690E00E94090313BEF2
S113060015BE78940E94CA020E9473030E94D3020A
S113061008952FB7F894FC01608340832FBF089599
S1130620E4E6F0E080818B7F808380ED8CBDE3E69F
S1130630F1E010821682158208951F920F920FB670
S11306400F9211242F933F934F935F936F937F9354
S11306508F939F93AF93BF93CF93DF93EF93FF93C6
S11306609EB580916701823011F1C3E6D1E0A98182
S1130670BA81FD019193FA83E983813019F01196CF
S11306809C9101C090E0E3E6F1E083818150838393
S1130690882311F09EBD14C0E3E6F1E083E080837B
S11306A00580F681E02D309759F0099509C0E3E6FD
S11306B0F1E0A181B281CD01019692838183DFCFE4
S11306C0FF91EF91DF91CF91BF91AF919F918F9166
S11306D07F916F915F914F913F912F910F900FBE3A
S11306E00F901F901895E4E6F0E080818F7D808361
S11306F082E084BD95E095BD80936E0080E008950E
S1130700E4E6F0E080818D7F80831092C5008CE068
S11307108093C4001092C00088E08093C10080E000
S113072008958091C00085FB882780F90895809101
S1130730C00086FB882780F991E089270895E0ECC2
S1130740F0E0908195FFFDCF8093C6000895CF928D
S1130750DF92FF920F931F93CF93DF93EC01AE814F
S1130760BF81EB01CC0FDD1FC60FD71FCA0FDB1FE4
S1130770FA80FC0144815581E6E0E69F9001E79F01
S1130780300D11248A01020F131FF80122813381D5
S1130790F90121813281F80104811581201B310B7B
S11307A0E8812E1B3109EC01EA81FB810081118172
S11307B0FA0140E050E04017510739F14617570756
S11307C0F9F012968C911297F8121AC0808185580C
S11307D08230E8F0C480D58082819381EC018981E4
S11307E09A81C816D90660F48C199D09CC91D0E081
S11307F0C817D90728F48C1B9D0B2817390738F024
S11308004F5F5F4F13963696D6CF80E001C081E0EC
S1130810DF91CF911F910F91FF90DF90CF900895BA
S113082020916A0130916B01820F931F90936B01A9
S113083080936A0108950097D9F041155105C1F0DC
S113084026E0629FB0011124DC011496ED91FC9125
S11308501597E60FF71F21E0208314968D919C9144
S11308601597FC01E60FF71F5383428380E0089538
S11308708BE008952F923F924F925F926F927F92F6
S11308808F929F92AF92BF92CF92DF92EF92FF929C
S11308900F931F93CF93DF93009709F47EC3EC016A
S11308A0A12CB12C812C912C212CD12C5524539486
S11308B033E0C32E45E8642E56E8752E62E0362EEA
S11308C078E0472EEA81FB81808191818816990620
S11308D008F0A6C17501EE0CFF1CEC81FD81EE0D44
S11308E0FF1DA281B3819C919E7109F050820C81FD
S11308F01D810E0D1F1DD8018C91843009F49EC0FA
S113090038F48230D1F008F045C0813059F081C10B
S1130910853809F4BFC0863809F4F5C0873009F07A
S113092078C136C1911167C1F80130828C819D81F3
S1130930FC01EE0DFF1D41825EC1D80111962C9180
S11309401197222329F11296ED91FC9113972530EA
S113095018F0818192810EC0D80114968D919C91DA
S11309601597418152818417950769F048175907F3
S113097030F4019715969C938E93149704C00196B6
S1130980F801958384832150D80111962C9333C1A7
S1130990F8012DC1D80114962D913C91159712960A
S11309A0ED91FC911397418152812417350709F485
S11309B030C18E819F8142175307F8F4EA81FB818D
S11309C0241B350BDC01AA0DBB1D8C9190E0058026
S11309D002C0959587950A94E2F799272817390755
S11309E008F417C18481882309F413C187E0F8014E
S11309F08083EA81FB8124811AC0FC01EA0DFB1D7E
S1130A00421B530B808190E04817590708F401C139
S1130A108281882331F0B401CE010E94A7038111A1
S1130A20F8C0E4E0D801EC93EA81FB8122818C8157
S1130A309D81FC01EE0DFF1D2183DDC0D8011496BC
S1130A402D913C9115971296ED91FC91139781810C
S1130A5092818217930708F4BBC0EE81FF81EA0DEF
S1130A60FB1D821B930B208130E02817390708F007
S1130A70C5C08281882331F0B401CE010E94A7034E
S1130A808111C7C0F8018181882309F46AC08150AB
S1130A908183B1C0E881F981AA81BB8118968C91C8
S1130AA08383EC81FD81EE0DFF1D44815581A2817C
S1130AB0B38111968D919C91129784179507C0F07C
S1130AC0AE81BF81AA0DBB1D6C91262F30E011961B
S1130AD07C917F5F02C0359527957A95E2F7841B58
S1130AE0950B621B262F30E02817390708F48FC0B6
S1130AF07082EA81FB8122818C819D81FC01EE0D53
S1130B00FF1D218342C0D80114966D917C911597E5
S1130B101296ED91FC9113972181328126173707A4
S1130B2058F411968C911197811102C0CC926FC028
S1130B308150F80181836BC0EE81FF81EA0DFB1DBA
S1130B408081482F50E091819F5F02C05595479561
S1130B509A95E2F7261B370B841B90E082179307C4
S1130B6060F4D8016C92EA81FB8123818C819D81A0
S1130B70FC01EE0DFF1D21834AC0F8018181811122
S1130B8002C0C08244C0815081832224239433C094
S1130B90F801248135810280F381E02D81819281E5
S1130BA08217930758F5281B390BEE81FF81EA0D54
S1130BB0FB1D808190E0EA81FB81058002C0959550
S1130BC087950A94E2F799272817390718F4D8016A
S1130BD0CC9216C0F801818181110BC050828C81A6
S1130BE09D81FC01EE0DFF1D0280F381E02DC0828A
S1130BF010C081508183DD24D3940BC0F801C082DE
S1130C008C819D81FC01EE0DFF1D118202C0222406
S1130C102394FFEF8F1A9F0A83E0A80EB11C52CED3
S1130C20E881F981808187FF23C040E050E020E023
S1130C3030E0EA81FB81808191812817390798F49B
S1130C40EC81FD81E40FF51FA281B3818C9180FDBD
S1130C5005C09081977F11F081608C932F5F3F4F87
S1130C604A5F5F4FE6CFE881F98180818F77808387
S1130C70D11007C0E881F98121106FC080818E7F77
S1130C806EC0EA81FB8181858823A1F3E881F98123
S1130C90808180688083EA81FB818185813051F77E
S1130CA040E050E020E030E096E0D92EEA81FB817C
S1130CB06081718126173707E8F60C811D81FA01DE
S1130CC0EE0FFF1FE00FF11F8081982F977FA1F196
S1130CD0853811F08330B1F5EE80FF80D701A40F81
S1130CE0B51F1296BC90BB2039F180E090E0C12C76
S1130CF086179707F8F428173907D1F0D89ED00142
S1130D00D99EB00D1124A00FB11FAC91A43011F0E5
S1130D10A63871F4DC01AA0FBB1FA80FB91FAE0DD2
S1130D20BF1D1296AC91BA1203C0CB01CC24C3945C
S1130D300196DECFC11006C00280F381E02D8081D0
S1130D408E7F05C00280F381E02D808181608083E5
S1130D502F5F3F4F4D5F5F4FA9CF808181608083BC
S1130D6080916A0190916B01E881F981218132813E
S1130D70A90148535F4F4817590738F4821B930B56
S1130D80AA24A394A3E0BA2E44C08217930710F0B8
S1130D9080E004C1821B930B0197893C9105C0F349
S1130DA0EFCF885C9109E881F98121813281285350
S1130DB03F4F328321832381211196C02481222332
S1130DC011F021502483E881F9812581222311F037
S1130DD0215025838A809B80D40116962C911697E6
S1130DE021111BC08A809B80F4012781211148C0F6
S1130DF0EA81FB812381222361F020E030E0A0E03E
S1130E00B0E0EA81FB8140815181A417B50708F461
S1130E106EC0893C910528F6BBCF08811981F80181
S1130E2024812111DFCFED90FC9060E070E040E080
S1130E3050E04E155F05F1F0EC81FD81E60FF71FE0
S1130E402081233011F0283081F424813581C2803F
S1130E50D380D6011196CD90DC9012972C153D05C8
S1130E6020F42F5F3F4F358324834F5F5F4F6A5FCA
S1130E707F4FDFCFF4012681D80114962C93B2CF93
S1130E8008811981D80115962C912111B1CFE080E8
S1130E90F18060E070E040E050E04E155F05F1F055
S1130EA0EC81FD81E60FF71F2081233011F02830FB
S1130EB081F424813581C280D380D6011196CD90EE
S1130EC0DC901297C216D30620F4215031093583E1
S1130ED024834F5F5F4F6A5F7F4FDFCFF401278129
S1130EE0D80115962C9384CF2150238381CFA90157
S1130EF0440F551FEC81FD81E40FF51F60816538B7
S1130F0009F047C06181662319F06150618341C0D3
S1130F10A0826C817D81FB01E40FF51F0280F381C7
S1130F20E02DB082EE81FF81E20FF31FD280DD203D
S1130F3081F140E050E000E010E0EA81FB81608153
S1130F4071810617170728F5EE81FF81E40FF51F5D
S1130F506281D61219C0BA01660F771FEC81FD8138
S1130F604F01860E971EF401E280F380F701F080B2
S1130F70F0FE0AC0F401A082EC81FD81E60FF71FA8
S1130F800280F381E02DB0820F5F1F4F4D5F5F4FF2
S1130F90D4CF11962D5F3F4F34CF8BE0DF91CF91AB
S1130FA01F910F91FF90EF90DF90CF90BF90AF9083
S1130FB09F908F907F906F905F904F903F902F9075
S1130FC008958091730190917401A0919A01B09158
S1130FD09B01ED91FC9111974081518125E0289F5F
S1130FE0B001299F700D112420E030E0841795078B
S1130FF0A8F41496ED91FC911597E20FF31FE60FF8
S1131000F71FE0812B5F3F4FE0FD02C00196EECF5A
S1131010909374018093730180E008951092740199
S11310201092730181E008954AE0489F9001499F1E
S1131030300D1124E0919A01F0919B010280F3811B
S1131040E02DE20FF31F42814093F800E0919A01F2
S1131050F0919B010280F381E02DE20FF31F4381A5
S11310604093F900E0919A01F0919B010280F38191
S1131070E02DE20FF31F44814093FA00E0919A01BE
S1131080F0919B010280F381E02DE20FF31F428176
S1131090538164817581472F5527662777274093AD
S11310A0FB00E0919A01F0919B010280F381E02D15
S11310B0E20FF31F40814093F200E0919A01F09116
S11310C09B010280F381E02DE20FF31F41814093E5
S11310D0F30065E0689FA001699F500D1124E09121
S11310E09A01F0919B010480F581E02DE40FF51F36
S11310F083818093E500E0919A01F0919B01048043
S1131100F581E02DE40FF51F8381948188279F7377
S11311109093E600A0919A01B0919B011496ED91F1
S1131120FC911597E40FF51F808181FD608314966F
S11311308D919C911597FC01E40FF51F80818C71B2
S113114071F41296ED91FC911397E20FF31FE08571
S1131150E295EF70F0E0E05BFE4F808101C08FE329
S11311608093E700E0919A01F0919B010280F38162
S1131170E02DE20FF31F86818B3F10F48C5F01C0DA
S11311808FEF8093E800E0919A01F0919B01028037
S1131190F381E02DE20FF31F8781807F9185892BF6
S11311A08093E400E0919A01F0919B018281938104
S11311B0FC01E20FF31F87818F708093E10082E1CD
S11311C08093E0008091E90081608093E9000895B4
S11311D04F925F926F927F928F929F92AF92BF9243
S11311E0CF92DF92EF92FF920F931F93CF93DF93EF
S11311F080917201882309F431C1A0919A01B091C0
S11312009B01E0909C01F0909D01412C512C60E0E9
S113121070E000E010E080E06624639491E8792EA9
S1131220AA24AA94BB24B394CD90DC901197F60120
S1131230208131810217130708F00CC1E7012991BD
S113124039917E011496ED91FC911597E60FF71FE5
S113125040814C7150E056954795569547954115F8
S1131260510521F041305105C1F0EBC012964D916A
S11312705C911397440D551DEA0198859F7049852B
S1131280941710F4491B01C040E002C0369527951D
S11312904A95E2F732832183D5C012964D915C9131
S11312A01397440D551DEA01098402C0369527950C
S11312B00A94E2F732832183438154812115D2E0D9
S11312C03D0720F02F5F314091E005C0E501C21BCE
S11312D0D30B9E0190E0E601DA80D0E4DD1205C074
S11312E036952795992319F009C0992339F04F3F72
S11312F09FE3590731F470828EE007C088248394F9
S113130001C0812C2A30310598F41496ED91FC919A
S11313101597E60FF71F208127FF60821496ED9141
S1131320FC911597E60FF71F5F73548343838AC0BC
S11313306A01CC24C0E3DC229D2C9294DFE09D2240
S11313406A01CC24DFE0DD229D2D6A01C0EFCC22AE
S1131350DD2454E0D694C7945A95E1F75C2D4F7080
S1131360811032C0203D310560F0D3E09D1649F074
S113137093942F5C3109F6CF9F3041F09F5F255144
S1131380310926313105C0F79F3069F493E0991291
S113139002C09FE008C0939495E005C05F3049F017
S11313A05F5F2250310923303105C0F75F3009F007
S11313B05BC09F3009F454C09F5F55E055C099202D
S11313C061F09A942F5C3109203D3105C0F705C0C6
S11313D0992341F091502551310926313105C0F747
S11313E091110CC0911002C090E008C09A949AE048
S11313F005C0552341F051502250310923303105A5
S1131400C0F751110DC09923B9F191505AE023301E
S11314103105D0F605C02330310558F14FE05FE0C7
S1131420292D30E0322F22273295307F392B242B7F
S1131430C0E15C9F60011124C22AD32AD482C382F2
S113144001C0FFCF0F5F1F4F6B5F7F4FDAE04D0E80
S1131450511CEACE92E09093720110C083E00EC05A
S113146053E09516C1F25FE02330310508F07ACFDE
S1131470D7CF5FE04FE0D4CF50E0D2CFDF91CF9110
S11314801F910F91FF90EF90DF90CF90BF90AF909E
S11314909F908F907F906F905F904F9008958F9260
S11314A09F92AF92BF92CF92DF92EF92FF92CF932F
S11314B0DF93009709F476C0DC01ED91FC91C080C4
S11314C0D180E12CF12CA0E0B0E040E050E0BA0182
S11314D020E030E0AC15BD05B1F0EC01EA81FB8100
S11314E0EE0DFF1DA080B1802A293B2982809380C4
S11314F0A480B580482959296A297B291196DAE004
S1131500ED0EF11CE7CF411551056105710509F494
S11315104BC0E09172014A015B018824AA24BB24D8
S11315206A017B01CC24DD24FF24872F9927AA2775
S1131530BB27E11117C02093F0003093F1004093D2
S1131540F400892C9A2CAB2CBB248092F500670103
S1131550EE24FF24C092F6008093F70081E080938C
S113156072011EC0E091F0002E2B2093F000209118
S1131570F100232B2093F1002091F400422B40939F
S1131580F4002091F50029292093F5002091F6001C
S11315902E292093F6002091F700822B8093F700E8
S11315A080E003C08BE001C082E0DF91CF91FF9027
S11315B0EF90DF90CF90BF90AF909F908F90089561
S11315C0009731F090939D0180939C0180E00895F1
S11315D08BE00895CF93DF9300D000D0CDB7DEB772
S11315E0109276011092770110927801109279018D
S11315F06115710509F4DBC0009709F4D8C0209186
S11316007201222309F4D5C0243009F093C010924A
S113161075018091E90080FF8BC02091E80030E0E3
S1131620A6E0B0E00E94870C609376017093770186
S113163080937801909379012091E3002F70DC016D
S1131640CB01820F911DA11DB11D80937601909352
S11316507701A0937801B09379012091E400277079
S113166004C0880F991FAA1FBB1F2A95D2F70E9694
S1131670A11DB11D8093760190937701A093780109
S1131680B09379012091E100237004C0880F991F61
S1131690AA1FBB1F2A95D2F722E0B695A795979566
S11316A087952A95D1F78093760190937701A0933B
S11316B07801B093790119821A821B821C8221E07D
S11316C049815A816B817C81481759076A077B07D6
S11316D0B0F430917501332329F089839A83AB8365
S11316E0BC8320E049815A816B817C814F5F5F4FCD
S11316F06F4F7F4F49835A836B837C83E1CF2223CF
S1131700B9F08091E90080FF13C01092E00000005E
S113171082E18093E000000081E08093E900809101
S11317206E0190916F01019690936F0180936E0109
S113173081E042C090939B0180939A0170936D0164
S113174060936C01DC01ED91FC918281803411F491
S113175088E003C0803879F58AE08093E200E09164
S11317609A01F0919B010190F081E02D84818031F8
S113177008F080E18093E30081E084BF80937400EB
S113178010927401109273010E94E10781110BC041
S113179084E08093720180917301909174010E949E
S11317A0140880E009C082E08093720105C08BE0D8
S11317B003C083E001C082E00F900F900F900F9060
S11317C0DF91CF9108950097C9F0DC01ED91FC9170
S11317D01197208131812617370790F045E0469F05
S11317E09001479F300D11241496ED91FC911597AB
S11317F0E20FF31F81E0808380E008958BE0089579
S113180082E008950097D1F1DC01ED91FC911197EC
S1131810208131812617370798F122811496ED91A2
S1131820FC911597203459F485E0869FD001879F59
S1131830B00D1124AE0FBF1F84E392E00CC020381A
S113184081F485E0869FD001879FB00D1124AE0FEF
S1131850BF1F87E695E014969C938E93139780E0C0
S113186001C082E095E0969F9001979F300D11246E
S1131870E20FF31F90819260908308958BE00895A6
S113188082E008951092E0008091EE002091EF0034
S1131890E0917301F0917401EE0FFF1F40919C01E0
S11318A050919D01E40FF51F90E0922B918380836A
S11318B080917001909171010196909371018093D0
S11318C07001892B21F410926F0110926E018091A6
S11318D07301909174010196909374018093730144
S11318E00E94E10781110AC084E080937201809113
S11318F07301909174010E94140805C0E0916C0179
S1131900F0916D01099581E0809375010895A29F7E
S1131910B001B39FC001A39F700D811D1124911DBF
S1131920B29F700D811D1124911D0895F894FFCF6D
S11319305FB400864A03EB00000000000000AA55D3
S1131940016EA07A0121018E011B01050100050130
S11319500002000400050014051401450131018052
S11319600100000400000000010004000008000061
S1131970000001000402008030004C31004C3200B1
S10919803F1C0B050301EE
S9030000FC
