:100000000C9466000C9483000C9483000C94830081
:100010000C9483000C9483000C9483000C94830054
:100020000C9483000C9483000C9483000C94830044
:100030000C9483000C9483000C9483000C94830034
:100040000C9483000C9483000C9483000C949E0009
:100050000C9483000C9483000C9483000C94830014
:100060000C9483000C9483000C9483000C94830004
:100070000C9483000C9483000C9483000C948300F4
:100080000C9483000C9483000C9483000C948300E4
:100090000C9483000C9483000C9483000C948300D4
:1000A0000C9483000C9483000C9483000C948300C4
:1000B0000C9483000C9483000C9483000C948300B4
:1000C0000C9483000C9483000C94830011241FBEB5
:1000D000CFEFD8E0DEBFCDBF11E0A0E0B1E0ECEEA5
:1000E000F1E002C005900D92A030B107D9F721E0F0
:1000F000A0E0B1E001C01D92A730B207E1F70E9475
:100100008F000C94F4000C94000087E084B981E522
:100110008CBD08958EBD0DB407FEFDCF08950E94DD
:10012000850081E40E948A002FE38DE093E0215056
:1001300080409040E1F700C00000F3CF1F920F9283
:100140000FB60F9211242F933F934F935F936F93AA
:100150007F938F939F93AF93BF93CF93DF93EF934F
:10016000FF939EB580910401823011F1C0E0D1E08F
:10017000A981BA81FD019193FA83E983813019F055
:1001800011969C9101C090E0E0E0F1E08381815004
:100190008383882311F09EBD14C0E0E0F1E083E08A
:1001A00080830580F681E02D309759F0099509C0CC
:1001B000E0E0F1E0A181B281CD01019692838183DB
:1001C000DFCFFF91EF91DF91CF91BF91AF919F91E1
:1001D0008F917F916F915F914F913F912F910F90F0
:0C01E0000FBE0F901F901895F894FFCFF1
:00000001FF
