S022000053494D504C455452414E534D4954544552464F52544F554348312E7372656340
S11300000C9466000C9483000C9483000C9483007D
S11300100C9483000C9483000C9483000C94830050
S11300200C9483000C9483000C9483000C94830040
S11300300C9483000C9483000C9483000C94830030
S11300400C9483000C9483000C9483000C94D200D1
S11300500C9483000C9483000C9483000C94830010
S11300600C9483000C9483000C9483000C94830000
S11300700C9483000C9483000C9483000C948300F0
S11300800C9483000C9483000C9483000C948300E0
S11300900C9483000C9483000C9483000C948300D0
S11300A00C9483000C9483000C9483000C948300C0
S11300B00C9483000C9483000C9483000C948300B0
S11300C00C9483000C9483000C94830011241FBEB1
S11300D0CFEFD8E0DEBFCDBF11E0A0E0B1E0E4E5B2
S11300E0F2E002C005900D92A030B107D9F721E0EB
S11300F0A0E0B1E001C01D92A730B207E1F70E9471
S113010088000C9428010C9400000E949400089527
S11301100E948500FFCF26982E98259A2D98279A1D
S11301202F980E94C500089583E0809365008FEFA7
S1130130809364009FE09093630091B111B892B1F1
S113014082B994B114B895B185B997B117B898B17B
S113015088B99AB11AB89BB18BB98DB180788DB931
S11301608EB18F678EB940E060E881E690E00E942E
S1130170BE0013BE15BE0E948B0008952FB7F894DD
S1130180FC01608340832FBF0895E4E6F0E08081A2
S11301908B7F808380ED8CBDE0E0F1E010821682DD
S11301A0158208951F920F920FB60F9211242F9368
S11301B03F934F935F936F937F938F939F93AF93EB
S11301C0BF93CF93DF93EF93FF939EB58091040188
S11301D0823011F1C0E0D1E0A981BA81FD0191938F
S11301E0FA83E983813019F011969C9101C090E063
S11301F0E0E0F1E0838181508383882311F09EBD88
S113020014C0E0E0F1E083E080830580F681E02D16
S1130210309759F0099509C0E0E0F1E0A181B2817D
S1130220CD01019692838183DFCFFF91EF91DF911E
S1130230CF91BF91AF919F918F917F916F915F917A
S11302404F913F912F910F900FBE0F901F901895D3
S1070250F894FFCF4C
S9030000FC
