:1000000045C0000060C000005EC000005CC0000091
:100010005AC0000058C0000056C0000054C0000084
:1000200052C0000050C000004EC000004CC0000094
:100030004AC0000048C0000046C0000044C00000A4
:1000400042C00000C3C100003EC000003CC0000030
:100050003AC0000038C0000036C0000034C00000C4
:1000600032C0000030C000002EC000002CC00000D4
:100070002AC0000028C0000026C0000024C00000E4
:1000800022C0000020C000001EC0000011241FBEBE
:10009000CFEFD0E1DEBFCDBF11E0A0E0B1E0E6E5FB
:1000A000F4E000E00BBF02C007900D92A431B1074D
:1000B000D9F721E0A4E1B1E001C01D92A732B20757
:1000C000E1F717D0C6C19CCFBC9A6E9A6F9A08957B
:1000D0009093900089B988E18AB98EE08093950069
:1000E00008955D9BFECF8CB908955F9BFECF8CB1C8
:1000F0000895EADF87E090E0EBDF789481B3806FCA
:1001000081BBE1E6F0E080818F67808384B38F6DEF
:1001100084BB80E885BB6894FF24F6F810E1C2E652
:10012000D0E000E2E2DF8A3A39F482B3805882BB41
:10013000888181278883F6CF8B3B39F482B380276F
:1001400082BB888180278883EDCF8C3C39F482B3D1
:10015000812782BB88818F258883E4CF8D3D11F76D
:1001600082B38F2582BB85B3812785BBDBCF80918E
:1001700024018C3401F5809125018133E1F482B3AF
:10018000805882BBE2E6F0E0908180E4892780839A
:10019000E091190181E08E0F80931901F0E0EF5F8B
:1001A000FE4F80819EDF9091190180910001981788
:1001B00010F01092190165E071E084E291E040D105
:1001C000892B49F492B380E2982792BBE2E6F0E0F3
:1001D00090818927808368E071E084E291E030D1EA
:1001E000892B51F492B380E1892782BBE2E6F0E0EB
:1001F000908180E4892780836BE071E084E291E064
:100200001FD1892B31F5809115019091160101962E
:10021000909316018093150181709078992324F4AE
:1002200001978E6F9F6F0196019741F4969AAC9A51
:1002300081E090E09093180180931701809115015F
:1002400080FD07C09698AC98109218011092170183
:100250002CC061E171E084E291E0F2D0892B79F465
:1002600080911701909118019C012150310924308F
:10027000310528F4019690931801809317016EE0E0
:1002800071E084E291E0DCD0892B79F48091170150
:10029000909118019C01225031092430310528F435
:1002A0000197909318018093170180911701909105
:1002B0001801892B91F4E2E6F0E080818E7F808343
:1002C00080818D7F808380818B7F80838081877F09
:1002D0008083AB98AA98A998A898809117019091CB
:1002E0001801019791F4E2E6F0E080818E7F80832F
:1002F00080818D7F80838081846080838081877FFF
:100300008083AB98AA98A998A8988091170190919A
:100310001801029791F4E2E6F0E080818E7F8083FD
:1003200080818260808380818B7F80838081877FD2
:100330008083AB9AAA98A998A89880911701909168
:100340001801039791F4E2E6F0E0808181608083F8
:1003500080818D7F808380818B7F80838081877F78
:100360008083AB9AAA9AA998A89880911701909136
:100370001801049791F4E2E6F0E080818E7F80839B
:100380008081826080838081846080838081877F98
:100390008083AB9AAA9AA99AA89880911701909104
:1003A0001801059791F4E2E6F0E080818E7F80836A
:1003B00080818D7F808380818B7F80838081886036
:1003C0008083AB9AAA9AA99AA89A08951F920F922D
:1003D0000FB60F9211240BB60F922F933F934F93AA
:1003E0005F936F937F938F939F93AF93BF93EF939D
:1003F000FF938FB1E091140191E09E0F909314014F
:10040000F0E0EC5DFE4F808380911401823029F48E
:100410001092260110921401AADEFF91EF91BF9174
:10042000AF919F918F917F916F915F914F913F918C
:100430002F910F900BBE0F900FBE0F901F9018952D
:10044000FB01DC018D91019080190110D9F3990B0A
:060450000895F894FFCFAF
:10045600040A0D4C314C32004C3300463100443115
:04046600005531000C
:00000001FF
