:100000000C9466000C9483000C9483000C94830081
:100010000C9483000C9483000C9483000C94830054
:100020000C9483000C9483000C9483000C94830044
:100030000C9483000C9483000C9483000C94830034
:100040000C948A000C9483000C9483000C94870118
:100050000C9483000C9483000C9483000C94830014
:100060000C9483000C9483000C9483000C94830004
:100070000C9483000C9483000C9483000C948300F4
:100080000C9483000C9483000C9483000C948300E4
:100090000C9483000C9483000C9483000C94100146
:1000A0000C9483000C9483000C9483000C948300C4
:1000B0000C9483000C9483000C9483000C948300B4
:1000C0000C9483000C9483000C94830011241FBEB5
:1000D000CFEFD8E0DEBFCDBF11E0A0E0B1E0EAEDA8
:1000E000F8E002C005900D92A237B107D9F721E0E0
:1000F000A2E7B1E001C01D92A03EB207E1F70E9465
:10010000AF000C946B040C9400000E9444010E9408
:10011000B30008951F920F920FB60F9211242F93E0
:100120003F934F935F936F937F938F939F93AF937F
:10013000BF93EF93FF930E94F900A89AFF91EF916C
:10014000BF91AF919F918F917F916F915F914F91EF
:100150003F912F910F900FBE0F901F9018950E9406
:100160008500FFCF08950F931F93CF93DF9388E00F
:1001700087BDE3E6F0E08081877F80831298139843
:10018000149811981098159884E291E00E942C031D
:100190008CEA91E00E94BD03C0E0D0E0BE0184E2A1
:1001A00091E00E94C703BE0184E291E00E94E60351
:1001B0002196C630D10591F70EE811E0C0E0A80104
:1001C0006C2F80E091E00E940602CF5F0B5F1F4F13
:1001D000C630A9F70E94B200DF91CF911F910F9115
:1001E000089581E08093740184E190E00E94FB0116
:1001F00008958091720190917301449739F410929F
:100200007301109272010E94F100089580917201B1
:1002100090917301019690937301809372010895F8
:100220001F920F920FB60F9211242F933F934F936B
:100230005F936F937F938F939F93AF93BF93EF934E
:10024000FF930E942604FF91EF91BF91AF919F9180
:100250008F917F916F915F914F913F912F910F906F
:100260000FBE0F901F90189526982E98259A2D98BE
:10027000279A2F980E947A01089550985898519A79
:1002800059980E94EA01089583E0809365008FEFFA
:10029000809364009FE09093630091B111B892B194
:1002A00082B994B114B895B185B997B117B898B11E
:1002B00088B99AB11AB89BB18BB98DB180788DB9D4
:1002C0008EB18F678EB940E060E881E690E00E94D1
:1002D000730113BE15BE78940E9434010E94DD01A3
:1002E0000E943D0108952FB7F894FC01608340837C
:1002F0002FBF0895E4E6F0E080818B7F808380ED5E
:100300008CBDE5E7F1E010821682158208951F92F8
:100310000F920FB60F9211242F933F934F935F9339
:100320006F937F938F939F93AF93BF93CF93DF93FD
:10033000EF93FF939EB580917901823011F1C5E76B
:10034000D1E0A981BA81FD019193FA83E9838130DB
:1003500019F011969C9101C090E0E5E7F1E08381EE
:1003600081508383882311F09EBD14C0E5E7F1E03E
:1003700083E080830580F681E02D309759F0099560
:1003800009C0E5E7F1E0A181B281CD010196928338
:100390008183DFCFFF91EF91DF91CF91BF91AF913B
:1003A0009F918F917F916F915F914F913F912F918D
:1003B0000F900FBE0F901F901895E4E6F0E080813B
:1003C0008F7D808382E084BD95E095BD80936E0033
:1003D00080E00895E4E6F0E080818D7F80831092D4
:1003E000C5008CE08093C4001092C00088E0809328
:1003F000C10080E0089520917C0130917D01820F41
:10040000931F90937D0180937C0108950097D9F00C
:1004100041155105C1F026E0629FB0011124DC01B5
:100420001496ED91FC911597E60FF71F21E02083BC
:1004300014968D919C911597FC01E60FF71F53833D
:10044000428380E008958BE008958091850190912A
:100450008601A091DC01B091DD01ED91FC91119735
:100460004081518125E0289FB001299F700D112402
:1004700020E030E084179507A8F41496ED91FC91E4
:100480001597E20FF31FE60FF71FE0812B5F3F4F39
:10049000E0FD02C00196EECF909386018093850126
:1004A00080E00895109286011092850181E0089500
:1004B0004AE0489F9001499F300D1124E091DC01F2
:1004C000F091DD010280F381E02DE20FF31F428104
:1004D0004093F800E091DC01F091DD010280F381AE
:1004E000E02DE20FF31F43814093F900E091DC011E
:1004F000F091DD010280F381E02DE20FF31F4481D2
:100500004093FA00E091DC01F091DD010280F3817B
:10051000E02DE20FF31F4281538164817581472FE3
:100520005527662777274093FB00E091DC01F09187
:10053000DD010280F381E02DE20FF31F4081409343
:10054000F200E091DC01F091DD010280F381E02D09
:10055000E20FF31F41814093F30065E0689FA00123
:10056000699F500D1124E091DC01F091DD010480C0
:10057000F581E02DE40FF51F83818093E500E09184
:10058000DC01F091DD010480F581E02DE40FF51F21
:100590008381948188279F739093E600A091DC016A
:1005A000B091DD011496ED91FC911597E40FF51FC4
:1005B000808181FD608314968D919C911597FC013B
:1005C000E40FF51F80818C7171F41296ED91FC910E
:1005D0001397E20FF31FE085E295EF70F0E0E55925
:1005E000FE4F808101C08FE38093E700E091DC0142
:1005F000F091DD010280F381E02DE20FF31F86818F
:100600008B3F10F48C5F01C08FEF8093E800E09186
:10061000DC01F091DD010280F381E02DE20FF31F98
:100620008781807F9185892B8093E400E091DC01B4
:10063000F091DD0182819381FC01E20FF31F87813C
:100640008F708093E10082E18093E0008091E90067
:1006500081608093E90008958F929F92AF92BF923C
:10066000CF92DF92EF92FF92CF93DF93009709F43E
:1006700076C0DC01ED91FC91C080D180E12CF12CA1
:10068000A0E0B0E040E050E0BA0120E030E0AC157E
:10069000BD05B1F0EC01EA81FB81EE0DFF1DA080EC
:1006A000B1802A293B2982809380A480B580482983
:1006B00059296A297B291196DAE0ED0EF11CE7CF62
:1006C000411551056105710509F44BC0E0918401A4
:1006D0004A015B018824AA24BB246A017B01CC2443
:1006E000DD24FF24872F9927AA27BB27E11117C0F4
:1006F0002093F0003093F1004093F400892C9A2C61
:10070000AB2CBB248092F5006701EE24FF24C0923D
:10071000F6008093F70081E0809384011EC0E09191
:10072000F0002E2B2093F0002091F100232B20933A
:10073000F1002091F400422B4093F4002091F50049
:1007400029292093F5002091F6002E292093F60008
:100750002091F700822B8093F70080E003C08BE0AC
:1007600001C082E0DF91CF91FF90EF90DF90CF90BA
:10077000BF90AF909F908F900895009731F0909325
:10078000DF018093DE0180E008958BE008950097FB
:10079000C9F0DC01ED91FC91119720813181261780
:1007A000370790F045E0469F9001479F300D112498
:1007B0001496ED91FC911597E20FF31F81E0808371
:1007C00080E008958BE0089582E008950097D1F1CC
:1007D000DC01ED91FC9111972081318126173707BB
:1007E00098F122811496ED91FC911597203459F4DB
:1007F00085E0869FD001879FB00D1124AE0FBF1FEB
:1008000084E392E00CC0203881F485E0869FD0011B
:10081000879FB00D1124AE0FBF1F87E695E0149699
:100820009C938E93139780E001C082E095E0969FA1
:100830009001979F300D1124E20FF31F9081926079
:10084000908308958BE0089582E008951092E0006F
:100850008091EE002091EF00E0918501F0918601FA
:10086000EE0FFF1F4091DE015091DF01E40FF51FF5
:1008700090E0922B918380838091820190918301FB
:1008800001969093830180938201892B21F4109229
:1008900081011092800180918501909186010196DD
:1008A00090938601809385010E94250281110AC0E0
:1008B00084E08093840180918501909186010E945B
:1008C000580205C0E0917E01F0917F01099581E019
:0A08D000809387010895F894FFCF8C
:1008DA0088011A01B8010801050100050100050196
:1008EA0000050100050100050100060004000500DD
:1008FA001405140166012A018E010000040000009B
:10090A0000010004000008000000000100040000CB
:10091A0010000000000100040000020000000001B5
:10092A000004000001000000000100040000200093
:10093A0000000001000406008030003F1C0B050384
:02094A000100AA
:00000001FF
